:020000041000EA
:1000000000B5324B212058609868022188439860DF
:10001000D860186158612E4B002199600221596106
:100020000121F02299502B49196001219960352056
:1000300000F044F80222904214D00621196600F024
:1000400034F8196E01211966002018661A6600F04E
:100050002CF8196E196E196E052000F02FF8012189
:100060000842F9D1002199601B49196000215960AB
:100070001A491B48016001219960EB211966A021F2
:10008000196600F012F800219960164914480160C1
:100090000121996001BC002800D000471248134993
:1000A000086003C880F30888084703B5996A0420EC
:1000B0000142FBD001200142F8D103BD02B5186610
:1000C0001866FFF7F2FF186E186E02BD00000240BE
:1000D000000000180000070000035F00212200005C
:1000E000F4000018222000A00001001008ED00E03C
:1000F00000000000000000000000000074B24E7A12
:1001000000200420F7010010C3010010C5010010F9
:10011000C1010010C1010010C1010010C101001097
:10012000C1010010C1010010C1010010C701001081
:10013000C1010010C1010010C9010010CB01001065
:10014000CD010010CD010010CD010010CD01001037
:10015000CD010010CD010010CD010010CD01001027
:10016000CD010010CD010010CD010010CD01001017
:10017000CD010010CD010010CD010010CD01001007
:10018000CD010010CD010010CD010010CD010010F7
:10019000CD010010CD010010CD010010CD010010E7
:1001A000CD010010CD010010CD010010CD010010D7
:1001B000CD010010CD010010CD010010CD010010C7
:1001C00000BE00BE00BE00BE00BE00BEEFF3058054
:1001D000103800BEF2EB8871E88405101085051018
:1001E0003402001090A31AE700201F49086006C8D7
:1001F00081F3088810471D48006800282FD10DA4FE
:100200000ECC002902D000F012F8F9E71849194A7B
:10021000002000E001C19142FCD1174988471749ED
:1002200088471749884700BEFDE701C901C29A42C5
:10023000FBD3704710850510C0000020200F002060
:1002400090930510000004200000042090930510F6
:10025000001004200010042000000000704709482E
:1002600004F03EFE0047000008ED00E0000000D072
:10027000400F0020FC4A022065370010550900108D
:100280008D3800105756000006005250ABB3605333
:10029000C8F0011006005250861C0302D8F001106D
:1002A000060052505422A29DE0F001100500525069
:1002B000DE65F46890930510F8B5C04610B5064C9D
:1002C0002378002B07D1054B002B02D0044800E017
:1002D00000BF0123237010BD70110020000000003A
:1002E000B0750110044B10B5002B03D0034904482E
:1002F00000E000BF10BDC0460000000074110020E7
:10030000B0750110F0B5C6469846802300B55B0273
:1003100088B00493531C17001B03D2011343364AC1
:10032000050013400593C0231B03069380239B0500
:100330000793324B0E00C418631E9C410634210003
:10034000022001F0EFFC2100032001F0EBFC210072
:10035000042001F0E7FC2100052001F0E3FC21006E
:10036000082001F0DFFC2100092001F0DBFC210066
:1003700001240B2001F0D6FC079B214A03931A406D
:10038000204B3100134328000222079300940823D6
:1003900005F06CFE01230B2231002800009405F0CB
:1003A00065FE069B184A03931A40184B40461343B8
:1003B000069305F0CDF984B20020002C0ED0200069
:1003C00005F09EF9011C404605F079F98721C90521
:1003D00005F08FF905F0BCF9C0B200022404044313
:1003E0003A003100280004AB049405F097FE08B0F1
:1003F00080BCB846F0BDC046FFFFFF9F0000E0AFE5
:10040000E0830FFC022C8000FFFFF50100000A4092
:10041000F0B5CE4647469846802380B5941D89B0F6
:100420005B0204932403D3011C433C4B05001C4096
:10043000C0231B0306938023DB050793384B0594E9
:10044000C418631E9C4106340E000C2021001700C6
:1004500001F068FC21000D2001F064FC01230C2256
:100460009946310028000093013305F0FFFD079BFA
:100470002C4A03931A40C0239B01134321000A20F6
:10048000079301F04FFC2100102001F04BFC2100EC
:10049000122001F047FC2100142001F043FC210050
:1004A000162001F03FFC079B1F4A03931A401F4B85
:1004B0003100134307934B460A22280000930C3364
:1004C00005F0D4FD069B1A4A03931A40F0231B0340
:1004D00013434046069305F03BF984B20020002CFC
:1004E0000ED0200005F00CF9011C404605F0E7F89D
:1004F0008721C90505F0FDF805F02AF9C0B2000210
:10050000240404433A003100280004AB049405F0AD
:1005100005FE09B0C0BCB946B046F0BDFFFFFF9F65
:100520000000E0AFFF83FFFFE0FF0FFC0A00D000F8
:10053000FFFF00C070B5EFF3108572B681210A4C41
:100540008902200017F014F8802220000749D20009
:1005500016F0FEFF8022F02005499202400316F0BB
:10056000F7FF85F3108870BD00FC1D009C4702203A
:10057000C82200200A4B10B519680B78DB2B00D07D
:1005800010BDC62207489200283005F03FF98022AE
:10059000054B92021968054805F038F9F0E7C046A6
:1005A000900500207447022094050020C8220020F6
:1005B00010B5124CC622A5440400114B68461968B8
:1005C0009200631E9C4105F021F9DB206B466442DA
:1005D00004401C70EFF3108472B680210948C900F2
:1005E00016F0C6FF802269460648D20016F0B0FF1A
:1005F00084F31088C6239B009D4410BDE8FCFFFFD8
:100600009005002000FC1D000B688D4A1B0AF0B508
:1006100094468C4C13404A685746224013438A4AFA
:100620004E464546DE469246E0B55546DF09174040
:100630009A091540A9462A00C026802576006D003B
:100640008751425155465A091540524680241B098C
:100650001340055103600A68AB467C4DD2082A401E
:100660004D6883B06D0101912900794D29400A43FD
:100670009109884677498A464146554629400F43A5
:1006800051092940884649464546294380256D0041
:100690008751415155468946110929408846594696
:1006A00045462943015188465146D2080A406146D1
:1006B000019D1A4302602B68DB000B406968C90288
:1006C0000D0060490D402B4359098B4662498A460B
:1006D0005946554629400F43190929408B4649463A
:1006E0005D46294380256D00875141515546894615
:1006F000D90829408B4641465D4629430151884629
:1007000051469B080B406146019D13430360AA6854
:10071000ED68120A0A404B490D402A4311098B46E5
:100720004E498A465946554629400F43D10829402B
:100730008B4649465D46294380256D0087514151CE
:1007400055468946910829408B4641465D462943D6
:1007500001518846514652080A401A4301990260E5
:100760008B683A4DC968DB082B40394D4901294057
:100770000B435D08AB463A4DAA465D4651460D40D7
:100780003D4357468551AB464D461F403D43A94624
:100790002F0080256D00475145465F000F402F43D5
:1007A00065469B000B4013430199075103608A681B
:1007B000C968D2002A40234DC90229405D46114331
:1007C000284A92460A402A43822582511602360E52
:1007D000FF354655C12655461204120E7600825545
:1007E0004A002A404D462A43802502266D00425188
:1007F00015022D0EFF36855581251204120E6D004F
:10080000425555468A002A4017433A020751120EB4
:100810000134025582223F043F0E8754CA002A4009
:100820001A430260130212041B0E120E43708270F0
:1008300003B0F0BCBB46B246A946A046F0BDC046D8
:10084000F800F80000F800F801010101FC00FC00CC
:1008500000FC00FC02020202040404040808080868
:100860004040404080808080F0B54F464646D646A6
:100870006224C0B5B126FF347600055D845B9A46DC
:10088000013484532C246C430419E38CA78A9C46BE
:1008900001239846C4446346E68B914601370136EE
:1008A000E3841022A35E3FB236B2A782E683BB4246
:1008B0000FDC0023A3829846E3680F689C466744D8
:1008C0000F60E78A1222A35E01373FB2E782002B56
:1008D00039D12C21694341181C23CC5EB44206DC7B
:1008E00000244B46CC831C88498B611819802C222C
:1008F0006A4382182623D45E2423D15E8C4206DB11
:1009000000215346D1841988528C8A181A802C23CE
:10091000B1226B435200C318815E28241B5F9942A9
:100920000CDB0023835262230135EDB2FF33C55443
:10093000023A825CAA4201D80022C254E0BCBA4604
:10094000B146A846F0BD9F42C3DBA3680B60434697
:10095000E382BEE7F0B5DE4657464E464546E0B573
:100960009DB000AF05F064F9214E300000F090FE1C
:10097000020053425341DB2233762823F2541D4BAD
:100980001D4C73632023834625000021F4623387C6
:1009900004228B081A40F023FA651B030A041A404C
:1009A0000F230B401A43D301994613039846530073
:1009B0009A46AC4600204A46B9657D650E21E02581
:1009C00043000B402D03410429400B4380210325A4
:1009D00049020B43C1082940FD6D2943052900D96F
:1009E000BEE3890089464D46044949598F46C046B1
:1009F0007447022080004000C8220020B07501101A
:100A0000914619035B000B43494619430B006146AD
:100A1000013008C18C464028D0D1B96D7D6D0131BF
:100A20000135FF352029B3D15B46002B01D100F001
:100A3000B3FD29230822F254E04D0121280005F0DE
:100A4000F3F901218346280005F0EEF9DC498146DF
:100A5000280005F03BFADB498046280005F036FA0D
:100A60008246052002F004FE04F04AFED64904F056
:100A70002CFE5246031C49462800FFF743FC052084
:100A800002F0F6FD04F03CFED04904F01EFE4246A2
:100A90005946031C2800FFF7BBFC4846012383404E
:100AA0002A68012013432B605B4698402A68FB6547
:100AB00003001343C64A2B609446E5446A46EC2380
:100AC0007A6402225B00F2505D3B1E32FF3BF25221
:100AD0000433F45000240433F4500433F450BD487C
:100AE0000433F4500433F0501E20844663467630BD
:100AF000335004303450043034504530FF30824697
:100B000053464138B449FF38335204303150B1674D
:100B1000A8218023725261468C32B4500432B45002
:100B20000432B4500432B4505B020432B3509B46DA
:100B3000C4230432B1505146F4500433F45004330A
:100B4000F152CF23BE3A9B00F250300016F03AFB30
:100B5000431C5B081BB29846EE2341465B00F152F2
:100B60000233F152022253465946F2520433F650F0
:100B70000433F4500433F4500433F4500433F45089
:100B80000433F4500433F150C13BFF3B9B465946BC
:100B9000C533FF33F15051460433F152300016F0A3
:100BA00011FB8222431C41465B089200B352022291
:100BB0008A4B8848F1520233F2520433F450043322
:100BC000F4500433F4500433F4500433F450043339
:100BD000F4500433F05058460433F0505046043378
:100BE000F0527F483465804670643000366416F0F9
:100BF000E9FA54220221431C5B08B3520232B1527B
:100C0000163AB2644246127853434C22B3524246DB
:100C100053784E225B00B352724BB365FFF7AAFCC8
:100C20000122FB6D10339A40FA61F9696B680A0082
:100C30001A401942F9D16149FB6D8C469B0063440F
:100C40007B611A61F8694B6802001A401842F9D1B9
:100C50007B691A6101231900FA6D1D000832914069
:100C60004A4610329540083293403B610023BB60F6
:100C70007B6C396580337B604B469B003B60EC238B
:100C80005B00F35C002B48D0B37E0B2B01D100F04E
:100C900075FCED235B00F35E002B37D1DA232C22A9
:100CA000FF33F35C5A43B218110080310968002900
:100CB0002CD0F16278320021525E002A00D0B28638
:100CC0002C225A43B2187A320021525E002A00D0F8
:100CD000F2862C225A43B2187C320021525E002A3E
:100CE00000D032872C225343F1180A009032128828
:100CF0000B0032860A0098321288002072860A00A1
:100D000096338C329E31106018800880364B180064
:100D10009A1E991F4630FFF7A7FDCF239B00F35C77
:100D2000002B6BD0B37E0D2B68D0304BF35E002BC5
:100D30003AD12C222E4BF35C5A43B2181100E53104
:100D4000FF31096800292FD0DD323164FF320021E4
:100D5000525E002A01D0542172522C225A43B218FA
:100D6000E132FF320021525E002A01D05621725238
:100D70002C225343F1180A00F532FF32108850221A
:100D8000B0520A00FD32FF32108852220B00B052DE
:100D90000A000020F132FB33FF33FF32106018806D
:100DA000144B9C4661440880134B180019008B308B
:100DB0009A1E1239FF30FFF757FD1FE00000205048
:100DC000C8750110E07501100000164B0000C84AFC
:100DD00000FEFFFF0000FFFF800040000A0200004D
:100DE0009CC7011000F81F00A64702203E03000028
:100DF0003D03000002020000C64702204A2352229F
:100E0000F35AB25A9B189BB2584202B29046102233
:100E1000D31A1BB29946736C9B46002B1CD05B788F
:100E2000404619009A4604F08DF80C008046514661
:100E3000484604F087F88146002C04DA01235B421F
:100E40009C465444E04424B2002900DA9EE30AB2EE
:100E50006C23F4520233F2525623F35E40461900DB
:100E60009A4604F06FF848460C00514604F06AF8C0
:100E7000002C00DA5444002900DA51445423F25E75
:100E800013004B4319008C465946BA6562437B6593
:100E9000B366336FFA657266D2186344002900D1D5
:100EA00064E3346CA05C6C22FC648978E35C4843A6
:100EB000B25E594312186E205B46305E5B68411883
:100EC0009A185B1833660023F265BB62FD60B48E2E
:100ED0003023F05E210004F035F88946002900DA5D
:100EE000A144338F98463223F05EBB6A41469C464C
:100EF000604404F04FF8F36A9A46F38E1D004B43AA
:100F00009B001A001031524408004146BA6404F0B4
:100F100041F82B004B439B009A444823F05A083376
:100F2000F35AC0185B46404200B2002B00D1E9E200
:100F30001B781900984604F005F8002900DAF8E259
:100F40000BB27422B96DB35203F0FCFF002902DA30
:100F5000BB6D9C4661447A6DFB6D9446FD6C5A46B0
:100F600031675B18E85C5B466144695C927850438A
:100F70004A4359686C23F35E1B186E20305ECB1811
:100F800082188918F36500239846BB6C22009B46A3
:100F900043464D463166FB6545E00C04000C20439A
:100FA0003866090CE81CD9467966824202D00424CE
:100FB0004444A1464C4624685344240421437966A2
:100FC0001968B966944500D3E3E05C680433A4462D
:100FD0006446090C24042143B9666146090CD446D1
:100FE000F966824201D004339C4663461B681B04A9
:100FF0000B43FB663C23F35C002B32D1FB6D0435C5
:1010000098087B6C80009C4660236044F918FFF7C9
:10101000FBFAB28EAA4200DCAD1AFB6D0433FB650D
:10102000802B00D136E159466B089B00C91808682F
:10103000AC1CA446D8463866944201D20431884696
:10104000414609687966EC07A7D453441968B96624
:10105000944500D3A2E05B68FB663C23F35C002B65
:10106000CCD04823FA6DF35AD31A4C22B25EB96A37
:10107000BA644A22B25A1BB28A1A11B279624E215C
:10108000715E103239635821715A12B2B9615A2116
:10109000715AFA6254223962B25E706C7A65726E6D
:1010A000FA63B26E3A64326C91466C22B25EBA63F5
:1010B0006E22B25E49467A63A9460022F964002B8B
:1010C00002DBB96C99426DDC92B2BA6500284AD055
:1010D0007422B15A01318AB29446742209B21500C1
:1010E000B1520278914221DB6446A21A7253326FE8
:1010F000796D013232678A4201DB521A32673C6CE9
:10110000F96BA446FD6C891862448478695CAA5C1A
:10111000614362434468A446BC6BA04641446144B9
:10112000F165796B8846424462443266BD6D013395
:101130000135A9B21BB22AB20429C0D14D465DE7E0
:10114000D9015B00C1460B435EE41903DB01D146C4
:101150000B4359E4C1465B0056E4D146DB0153E43E
:1011600091461B0350E4326F796D013232678A4237
:1011700001DB521A32673C6CF96BA446FC6C89188F
:101180006244A4464900520061446244F1653266FB
:10119000CCE753461B689C46534619E753461B68E9
:1011A000FB6627E7796A002971DB3C6B8C426EDDB8
:1011B000002800D180E1F46D742125780724715A4C
:1011C000641AA4B2A046254101242C4200D054E167
:1011D0005410A4463C6A2500202C00D152E191B263
:1011E000B96501210A4200D13AE129040D006146A6
:1011F0008900884660218C46BC44E0444146096829
:101200000C00CE498C4661460C40A4462C00614639
:101210000C43210044462160F96A002900DA55E7B1
:101220003C6B8C4200DC51E7002800D14AE1346E6F
:1012300074212478715AA4460724641AA4B22500A4
:1012400064462C41A446012465462C4200D02CE182
:101250003C6A202C00D13DE7022152100A43396A32
:1012600012B28C460121BC6D214200D1F0E06146F2
:1012700009048C46602192005218D21911680C00A2
:10128000AE490C4021006446214311601EE791B233
:10129000B965C1E72C3BF35E9C4656236446F35E7A
:1012A000726C5C43002A00D118E16C239846F05A16
:1012B0006E21013083B29A46434600B2F052735A0F
:1012C00001339DB21BB273525278A946904200DAA4
:1012D00011E15546AD1AAA4690B28346454650469E
:1012E00070539A4200DCF5E0736E63449C4200DC6C
:1012F0001B1B736640238021B86A490042011340DA
:1013000082010A4080211343C900C2010A401343ED
:101310000122024013437B652923F25CD2339B1ADE
:101320001B041343BB657B68854C9A460023A44687
:101330009B463B68FD686344984663683A6D1A4271
:10134000FBD1524650467B69803A1B6A116863683C
:101350001D42FCD14346043219618242F6D15B46FC
:101360000133FB65337E82469946002B5AD13A6998
:10137000A260A3681342FCD0FA6963681342FCD1EF
:101380007B69786D110018615846BB6DFA61834026
:101390001A0063680B42FCD17969FB6D0A619B46B8
:1013A000042B42D080239C464B46E244002BC4D100
:1013B0005B46DA017B6858469C460C006244AC46AA
:1013C0005F4B59683D6D2942FBD1216A110091465E
:1013D00080398A460D6861465A680A42FBD15146F7
:1013E0004246043115614945F3D14A46396999604D
:1013F00099683D692942FBD05968FD692942FBD1B2
:10140000796D91462161B96D81405D68FA69154237
:10141000FBD14A460130216180320428D1D1634694
:10142000FB6003E011F09EF8A1E7FD60BB6A0133A9
:10143000BB62102B00D187E0736C9B46336CFB645E
:10144000736EFB655423F35EBB65B36E7B653EE54F
:10145000602192005218D21911680C00394910E726
:1014600061468900884660218C46BC44E044414680
:1014700009680C0033498C46C5E651108C46B969A1
:101480000D00ACE6FC6A002C6DDB95B2BD653D6BD2
:10149000A54200DC1CE64546346E24782C41A44667
:1014A000012465462C4200D114E6022152100A4361
:1014B000B96912B28C46D5E6F16D54100988A4467C
:1014C0000D008CE60224316E5210098822438C46AE
:1014D00012B2C7E64B465A46981A7052736E63446E
:1014E0009C4224DC1B1B7366B36E63449C4200DC8D
:1014F0001B1BB366FEE69A4200DDFBE64B469A1ADA
:101500007252F1E7B96D03F01DFD002902DABB6DDF
:101510009C4661447A6DFB6D9446FA6CCB1831673A
:10152000614494465B004900634461442AE5736664
:10153000DAE70B00434401381BB202E5FFFF00006D
:10154000000020500000FFFF337EFD68002B05D017
:10155000BB6800205906C90F10F0F4FFBB680133C7
:10156000BB60FFF78CFB92B2BA65B3E5316C5200F9
:101570008C465B00F96462446344A3E4CF239B0080
:10158000F35C002B01D0FFF7D0FB37E4431E9946F4
:101590000B0053441AB25BE4300000F08BFBFFF702
:1015A0004BFAC046002070470020704770B5050018
:1015B0000C00002A39D1002937D04069002818D002
:1015C000002107F0D1F800220021686907F002F934
:1015D0000021686907F0DAF80021686907F0C8F8A7
:1015E0006869002107F0E0F8686907F0DBFD002872
:1015F00017D1290020006C6107F0B6F820000C49D3
:1016000007F0C4F820000B4907F0B2F80A222000C6
:10161000094907F0DFF82000084907F0C5F8002065
:1016200070BD686907F02CFAE3E706204042F7E74F
:10163000A5150010D5180010A915001041160010AE
:1016400010B504000D3100D110BD40690028FBD059
:10165000002107F089F800220021606907F0BAF83C
:101660000021606907F092F80021606907F080F8B6
:101670006069002107F098F8606907F093FD002881
:1016800002D100236361DFE7606907F0F9F9F8E749
:1016900010B582B0040010F079FF002832D16846FE
:1016A00005F086F96B466A465B7812781B02D21801
:1016B0006B469B781549D2186B46DB7820001B02DD
:1016C000D2186B461B79D2186B465B791B02D21875
:1016D0006B469B79D2186B46DB791B02D21892B20B
:1016E00003F0B4FB200010F049FF10F0CFFE084BD0
:1016F000084A0949094810F0D7FE431E9841404264
:1017000002B010BD01204042FAE7C046EC7501105E
:101710003075000004004000F875011008760110D3
:1017200070B5060010000D00140015F04BFD0123EC
:1017300082B22100280009F071FD002800D170BD9F
:1017400073690020002BFAD01800002107F00CF874
:1017500000220021706907F03DF80021706907F050
:1017600015F80021706907F003F87069002107F08F
:101770001BF8706907F016FD002802D10023736181
:10178000DDE7706907F07CF90D204042F6E7C046BE
:10179000622370B5FF33CA5C036A04001C2B0AD8AD
:1017A00049489B00C3589F462C235A43E369891834
:1017B0000B820023E36170BD2C235A438918E26930
:1017C000424B944663448B600023E361F3E72C2390
:1017D0005343E569C818058500251033CB18E5612A
:1017E0005D606223C583C584B0200132D2B2FF336D
:1017F000CA544000085C0026904259D0202323623E
:10180000D9E72C235A43E36989184B820023E3610B
:10181000D1E72C235A43E36989188B840023E361C1
:10182000C9E72C235A43E36989184B840023E361F9
:10183000C1E72C235A43E36989188B830023E361B2
:10184000B9E72C235A43E36989184B830023E361EA
:10185000B1E72C235A43E3698918CB600023E36185
:10186000A9E72C235A43E36989180B840023E36119
:10187000A1E72C235A43E36989180B830023E36112
:1018800099E72C235A43E36989188B800023E3618D
:1018900091E72C235A43E36989184B800023E361C5
:1018A00089E72C235A43E36953520023E36182E71B
:1018B000CE540133CD522000054A6169A676FFF768
:1018C0002FFF256277E7C0461C760110C822002052
:1018D00014760110F8B557464E464546DE46894611
:1018E000E0B50500171E00D126E1118900245668D5
:1018F000002932D0BB4B9A46BB4B9B4611E06A7E17
:10190000002A44D0325D3019392A38D82F2A00D91C
:1019100077E00D2A2BD8082A2BD80134A4B28C42A8
:1019200019D2AB7E002B0BD0012BE8D1335D403BAD
:10193000DBB2222B00D96EE0AC4A9B00D3589F4605
:10194000325D402AE9D101343F3AA4B2AA76EB6174
:101950002B628C42E5D300293AD1380005F0B4FF60
:101960000020F0BCBB46B246A946A046F8BD202ADE
:10197000D3D1092B42D89E4A9B00D3589F46402A78
:10198000CBD10123AB760023EB612B62C5E72A6A3A
:10199000002A1AD0E969013A0902E961305D9046EE
:1019A0000143E9612A620B2B0DD852469B00D358A4
:1019B0009F460020FEF7FCFD002328008D4A696940
:1019C000AB76FFF7ADFE3989A7E7AA76EA61A4E70F
:1019D000484606F0D3FBC0E72B6A012B0ED1EB691A
:1019E000FA2B00D9FA232922AB5469692800814ACD
:1019F000FFF796FE0023AB762B6239890023EB615B
:101A00008BE7EA6993009B185B00EB610278303B3F
:101A1000D318EB6181E70023AB767EE70823AB7632
:101A20002B627AE70423AB76033B2B6275E7032333
:101A3000AB7601332B6270E70A23AB76093B2B624E
:101A40006BE70223AB76013B2B6266E7FEF792FD64
:101A5000B2E70623AB76023B2B625EE70523AB764B
:101A6000013B2B6259E70120A4E70723AB76063B35
:101A70002B6252E7FEF75EFD9EE701236B769BE744
:101A800000236B7699E74346002B00D1DAE0042B64
:101A900099D10023490059446962EB6139893CE7D7
:101AA0000123424640461A4003428CD16B6A19809A
:101AB0000233EA616B62002885D128004D4A6969CA
:101AC000FFF72EFE4346AB767DE7082959D8EC2375
:101AD0005B00E954CE3BFF3BDA22AB760023FF32BA
:101AE000AB54EB6120332B62398916E7FA2945D8CC
:101AF000292302E04B1E99413C23E95469692800DF
:101B00003C4AFFF70DFE0023AB762B62EB6139896F
:101B100003E74346002B00D19BE0022B00D052E7A5
:101B200000236986EB613989F7E6290028007831BE
:101B3000FFF72EFE3989F0E643690020002B00D123
:101B40000FE71800002106F00FFE0022002168694F
:101B500006F040FE0021686906F018FE0021686961
:101B600006F006FE6869002106F01EFE686907F0AF
:101B700019FB002860D100236B61F2E6FA212923CA
:101B8000BBE70821A3E72B6A042B75D0022B00D0FA
:101B900034E7EB692B8628E72B6A012B00D02DE771
:101BA000EB69072B01D90023EB61134A9B009B587B
:101BB0006B641AE72B6A082B56D0042B00D01DE764
:101BC0000533AB76EB692B6218E76B6AEA691A801A
:101BD00002336B622B6A013B98462B62002B56D076
:101BE00039890BE744770110C82200209076011054
:101BF0001C77011014760110980500202B6A042B25
:101C00003FD0022B00D0F9E6EA695033EA52ECE605
:101C10002B6A042B43D0022B00D0EFE6EA6948334D
:101C2000EA52E2E62B6A012B00D0E7E6EB695A1E86
:101C300093413C22AB54D8E6686906F021FF0D20A1
:101C4000404298E70923AB7643462962EB61398924
:101C500063E62986EB6169692800144AFFF760FD95
:101C60004346AB76398958E6EB69114A5B009B180D
:101C70006B6204232B62C1E6EB696B8602232B6245
:101C8000BCE6EA694C33EA524E3B2B62B6E62800CA
:101C9000064A6969FFF744FD4346AB76A0E7EA6967
:101CA0004433EA52463B2B62A8E6C0461476011044
:101CB000C822002070B504002E2006F0DDFF051EAE
:101CC00005D00021144A06F063F9061E01D0002059
:101CD00070BD0121280006F0D7F92061002817D037
:101CE000210006F041FD20690C4906F06BFD0C4B0C
:101CF000082263620223FF332383D83BA676E25493
:101D00001333073A2663E66126620120E254DFE7D7
:101D1000280007F047FADAE792100000AD1500102E
:101D2000C8220020094A830094464022634410B52B
:101D30001C68C0006240C02414408022520113433A
:101D40001C60034B9C466044416010BD04C00140D0
:101D5000004001400A4B80009C4604236044002957
:101D600001D00C230821002A00D10B000268534047
:101D70000C221A4080235B01184302607047C04662
:101D800004C00140084B80009C466044002905D0F7
:101D900080239B011843022303607047C0239B01EB
:101DA000184302230360F8E704C00140D0231B0658
:101DB0001B6830B50500581E83410F485C428446BD
:101DC00007203023284023408000EC088140200079
:101DD0000A4D3C3063448000A40041511B19002A85
:101DE00004D0802292011343196030BDC0229201B9
:101DF00013431960F9E7C04600410140004001402B
:101E0000D023F0B5C64604001B0698461B680C4F4D
:101E10009B00F8580D00160000B5044209D1044398
:101E200032002900FC500D2000F042F980BCB84679
:101E3000F0BD01F047FD43461B689B00F858EEE7F4
:101E40002C46022010B504000D2000F025FAD02306
:101E50001B061B6802499B005A58A2435A5010BDEA
:101E60002C4602200123D022834012069362936104
:101E7000094A83009446402263441968C0004A40DE
:101E8000C02111408022520113431960034B9C462C
:101E9000052360444360704704C001400040014096
:101EA000024B18688007C00F7047C04600C006404C
:101EB000EFF3108072B6034A1368002BFCD0BFF317
:101EC0005F8F70472C0100D0BFF35F8F0022024B61
:101ED0001A6080F3108870472C0100D070B5EFF3C2
:101EE000108C72B60D4D2B68002BFCD0BFF35F8FAA
:101EF0000724CB08C618C05C01230C40A3401C007B
:101F00000440034207D103433370BFF35F8F2C605B
:101F10008CF3108870BD100001F0BCFC2C0100D0C7
:101F2000F8B54746CE46884680B5EFF3108C72B6BA
:101F3000214D2C68002CFCD0BFF35F8F9A422CD827
:101F4000D4080727055D061901241740BC402C4220
:101F50001FD007210127894609E0D408055D06192D
:101F60004C4639001440A1400C00294211D00132E6
:101F70009342F2D201204042BFF35F8F00220E4B0A
:101F80001A608CF3108800280FDBC0BCB946B0463D
:101F9000F8BD2C4310003470EEE7BFF35F8F0023D1
:101FA0002B608CF31088012040424346002BECD07C
:101FB000089801F06FFCC0462C0100D030B5EFF35B
:101FC000108C72B60A4C2368002BFCD0BFF35F8FD5
:101FD00007230122CD0819408A40435D93434355AE
:101FE000BFF35F8F002323608CF3108830BDC046A1
:101FF0002C0100D00021044B044ABFF35F8F02C3C1
:102000009342FAD17047C046000100D0800100D051
:10201000044A1078431CDBB2172B00D9102313702D
:102020007047C046B805002001238340002904D032
:10203000034A1360034A13607047034A1360FBE7C7
:1020400080E200E000E100E080E100E0024B1030BF
:102050009B688000C058704700ED00E070B50D002F
:10206000EFF3108672B60F4A1368002BFCD0BFF353
:102070005F8F0D4B10309B6884001B590B4A9342B5
:1020800003D09D4201D001F01DFC074B9B681D5100
:10209000BFF35F8FBFF35F8F0022024B1A6086F39E
:1020A000108870BD240100D000ED00E0CD010010CB
:1020B000F0B557464E46DE464546E0B585B00600CB
:1020C00002911700EFF3108B72B6674A1368002B6A
:1020D000FCD0BFF35F8F0025644B5D579A46002DFF
:1020E00000DAA4E06B00624C03935B199B009846F6
:1020F000A146C1444B4652469B79103613705D4B46
:10210000B2009B68019299580B1B2F2B34D95A4B64
:10211000994200D0A4E0039B584A9C46584B654422
:10212000AD006353434602336519E418554B012152
:10213000043B1B1B1B055B0D13436B80524BEF7164
:10214000AB80FF23AB71029BAB604B460B43190086
:10215000484B019A9B689950BFF35F8FBFF35F8F25
:102160000022414B1A608BF3108805B0F0BCBB46CF
:10217000B246A946A046F0BD01200A008243D379A9
:10218000BB422FD845464E46130040491B1B5B41BE
:102190005943090D3A4B63533A4B02356519043BD9
:1021A0005B1B1B05354D5B0D2B4373800426B4462A
:1021B000E0444444131F1B1B4C46A17102991B05AC
:1021C000A16049465B0D2B43A380314BE77101436E
:1021D0001360BDE75800C01880002018C679BE42C1
:1021E0002BD902000623D356002BF3DA101D8246AA
:1021F0002848804604267642B446E14450464E467E
:10220000361A3005400D824656461C4895710643E5
:102210009680039A944665441D4AAD006419226075
:102220004246A371029BA280E771A36090E701F090
:1022300049FB002553465D5754E7101D82469088A0
:102240004005001584464046D444664604302018B4
:10225000301AE0260005400D360230438046C9E7BB
:1022600001F030FB57E7C046240100D0F34A0220BA
:10227000BC05002000ED00E0CD01001000E0FFFFF4
:1022800000A1FFFFEC05002001BDFFFFAAAA00008E
:102290000148804701BD0000F0B5DE4657464E4676
:1022A0004546E0B50C0083B0EFF3108972B6584A8A
:1022B0001368002BFCD0BFF35F8F564B9A68030066
:1022C00010339F00D559544A9046954232D0A542CA
:1022D00043D0524EAA1B2F2A2CD80122824092466C
:1022E00051464F4A12681140019151464D4A1160C2
:1022F000BFF35F8FEFF305829346002A33D10123AA
:102300002A009A4393689C4208D177E04B005B18FF
:102310009B00F3189968A1422AD01A000621515651
:102320000029F3DA019B002B19D052463E4B1A606C
:102330003B4B1A60374B9B68DD51BFF35F8FBFF398
:102340005F8F0022324B1A6089F3108803B0F0BC13
:10235000BB46B246A946A046F0BD1500EAE7524684
:10236000304B1A60E6E79342C9D001F0ABFAC6E7FA
:1023700006215956002921DB4A00501880003418E4
:102380008046A0689860E079D87106202056987140
:10239000002824DBA488F01A64052415444400199D
:1023A000E0240005400D24022043988052181F4B62
:1023B0009200B6181A781970B271B3E7594600291D
:1023C0000FD1FF3191711A49918018490A789A7199
:1023D000184A9B1B5B415A43120D0A70A2E716482C
:1023E000E3E7164A1649D21A083A5002400D014353
:1023F0009980144952080A43DA8093E7062151561E
:1024000013000029B8DA5A46002AEAD14546DCE72B
:10241000240100D000ED00E0CD010010BC0500203B
:1024200000E100E080E100E080E200E0F34A022009
:1024300001BDFFFFAAAA000001BD0000F6050020B3
:1024400000F0FFFF00F8FFFF70B5EFF305810124F6
:102450000443EFF3108C72B6214A1368002BFCD0B2
:10246000BFF35F8F1F4B05001F4AED1A6D416A4392
:10247000120D1E4D8900AE6852B27658A6421CD08D
:102480000621595691421CD012215956914222D010
:102490001E215956914220D02A2159560324914297
:1024A00010D0134B19781A708171BFF35F8F00221F
:1024B0000B4B1A608CF3108870BDAB680D4C5C50F0
:1024C000EFE700246100091989005B18FF21997169
:1024D00009499980E5E70124F4E70224F2E7C046C0
:1024E000240100D0BC050020AAAA000000ED00E0F5
:1024F000F34A0220CD01001001BDFFFF054B064A43
:102500001360064A136053609360D3601361536194
:10251000936170478080808000E400E004E400E084
:1025200070B504000E001500FFF772FD01002000D9
:1025300000F006F8A680E580BFF35F8F70BDC0464F
:10254000024B9C46614489000160704740000034A2
:1025500010B50400FFF75CFD01002000FFF7F0FF5D
:10256000FF232371BFF35F8F10BDC04610B5040079
:10257000FFF74EFD01002000FFF7E2FFFF23A380DD
:10258000BFF35F8F10BDC04683680B4810B584460B
:1025900061446244090112019A18591854684B6841
:1025A00001209C4201D802D00020C0B210BD1268A8
:1025B0000B689A42F9D8F7E7FFFFFF0F0A4B19683B
:1025C000EFF3108072B60A68002AFCD0BFF35F8F69
:1025D0001B68BFF35F8F00221A6080F3108840BF32
:1025E000002000217047C04650470220F8B55746EA
:1025F0004E464546DE46E0B599460CAB1C780DAB21
:102600001B78060090469A460768002C11D1BC7BC7
:10261000002C42D065003B682D19033D59194B78B9
:10262000BB73002B00D1FB7300238B704B700B70BE
:1026300004E065003B682D19033D5919B2682A4B27
:1026400094464246E3181B0163441A604A465A60A6
:102650000A9A9A600B9ADA6000238B704B700B70A9
:102660007B7B9B46002B2BD022005946B8687B68A9
:1026700098473A68002816D05B4658465B005B4492
:102680005519033BA870D118D35C002B00D06B7098
:102690005B460C707B73A34513D0F0BCBB46B246BF
:1026A000A946A046F8BD5B465B005B44033BD318DC
:1026B0009C705119525D002A00D05A705B460B7015
:1026C0007C7342464B46307D00F09CFB051E06D0D5
:1026D0005346002B03D12100306800F0BDFD0E9B56
:1026E000002BDAD01D70D8E7FFFFFF0FF0B5DE46F4
:1026F00057464E4645460023E0B58BB00893664BDF
:102700008200D45800239B46099000F01BFB6268AE
:1027100006000F00EFF3108572B61368002BFCD093
:10272000BFF35F8F23689C465B7B9946002B68D084
:10273000A2685A4B90464B441B01984443461A6882
:102740005B6810001900801BB941002963DD0998FE
:1027500000F058FB002300229846002306920793BE
:1027600000239A466368BFF35F8F5A461A6085F369
:1027700010885346002B08D10028C6D10BB0F0BCFE
:10278000BB46B246A946A046F0BD089B414618028A
:102790004B461843D047626806000F00EFF31085E0
:1027A00072B61368002BFCD0BFF35F8F002F4FDB96
:1027B00033003B4302D02369002B60D12368D97BCF
:1027C000002907D04A00521819688C4649466244CD
:1027D000033A51709A7B002A01D14A469A734A46BD
:1027E000DA734B46E168013BCA5C0132CA545B466E
:1027F00023616368BFF35F8F5A461A6085F31088C0
:1028000083E70023002298460023069207930023C3
:1028100000209A46A6E7002901D1002897D100217F
:10282000604600F097FC43461A685B68069207937F
:1028300043469B689A464346DB689846E3684B44A8
:10284000013B1B7808931B0203432361002089E7A7
:102850002369002BB2D0069A079B921BBB41002B29
:1028600015DB5946049101210391494602914146E5
:102870000191514620000091FFF7B8FEB7E700F044
:1028800061FA32003B0012184B41002BE9DA0122B9
:10289000034B5242E5E7C0461C460220FFFFFF0FF4
:1028A000FFFFFF7F10B5144C6368002B04D00A2192
:1028B0001248FFF745FE10BD2300114A1021206881
:1028C00000F062FB032000F031FA032000F00AFB65
:1028D00003200C4900F050FAFFF79AFB0A4B9C4684
:1028E00003232375D0231B061B6860446375074BC5
:1028F00080006060DC60DAE70406002050470220B8
:1029000089250010ED260010400000341C460220EE
:10291000F0B557464E464546DE46E0B585B00193D4
:1029200010AB1B780600039300239A46984600924A
:102930007268EFF3108972B61368002BFCD0BFF3F6
:102940005F8F3568AC7B002C49D067002B683F193E
:10295000033FDB195A78AA73002A00D1EA73B168E1
:10296000484A8C4600980199A218120162441060EE
:1029700051600E9991600F99D16042469A705A70D9
:102980001A706B7B9B46002B45D022001900A8686B
:102990006B6898472A68002830D05B4658465B0031
:1029A0005B44D719033BB870D118D35C002B00D01F
:1029B0007B705B460C706B735C452DD0F3681B1904
:1029C000013B18787368BFF35F8F42461A6089F342
:1029D00010885346002B2CD10002204307E0736877
:1029E000BFF35F8F1C6089F310880120404205B05F
:1029F000F0BCBB46B246A946A046F0BD5B465B00B4
:102A00005B44033BD3189C70D119D25D002A00D0DF
:102A10005A705B460B706C73307D009A019B00F01E
:102A2000F1F982460028C9D02100306800F014FC7A
:102A3000C4E7039B002B23D00E9B00200F999847DF
:102A4000030004000D000B431AD000290ADA009A93
:102A5000019B121BAB4100920193002B0ADB039BED
:102A60009A4665E700F06EF924184D4100940195EF
:102A7000002DF4DA0123044C5B4200930194EEE74D
:102A80000020B4E7FFFFFF0FFFFFFF7F70B5426834
:102A90000400EFF3108572B61368002BFCD0BFF36F
:102AA0005F8F2068CEB2437BB3420AD0FF230B4036
:102AB0005A00D318026894466344033B9B78002B6A
:102AC00013D0E268FF2394460B406344013B0A0A9B
:102AD0001978D2B291420ED000206368BFF35F8FA5
:102AE00000221A6085F3108870BD22698A42F3D1F2
:102AF00000202361F1E7310000F0AEFBEDE7C046B6
:102B0000F0B504000D0006267642F717C6463619C2
:102B10006F4100B584B08F4214D811D000F012F983
:102B200032003B00121A8B41002B15DC002B3ED0EB
:102B30002000290000F010F904B080BCB846F0BDB8
:102B40008642EBD90026002700F0FCF832003B005B
:102B5000121A8B41002BE9DD002302930193154BE0
:102B60003200009314483B00FFF7D2FE0028DFDB61
:102B700000239846BC46114A114F7B6A9C4504D8F5
:102B8000B96A8E42D4D99C45D2D11168EFF3108036
:102B900072B60B68002BFCD0BFF35F8F1368BFF3D6
:102BA0005F8F4146196080F3108820BFE5E7002A57
:102BB000BED0D1E7BD2500100406002050470220FA
:102BC0000040054070B5060000F0BCF8FA22040091
:102BD0000D00002330000021920002F053FD001987
:102BE0006941002902DBFFF78BFF70BD012001491D
:102BF0004042F8E7FFFFFF7F70B5EFF30583050064
:102C00000C0084B0002B0AD0164A0020536A9C4264
:102C100003D8926A0130AA421FD304B070BD124E8D
:102C200002930193114B0200009330000B00FFF759
:102C30006FFE011EE8DD20BF3000FFF727FF094BC4
:102C40000020596A8C42E8D89B6A0130AB42E4D23A
:102C5000641A631E9C41E0B2DFE7E41A631E9C41E4
:102C6000E0B2DAE70040054004060020BD25001070
:102C7000F0B5EFF30582D6464F4646461000C0B584
:102C80001038EFF3108872B6214C2368002BFCD06B
:102C9000BFF35F8F0123190081401E4D1F00696340
:102CA000AA461D4D29601D4D2E78AC463500C54005
:102CB0002F402B4209D1BFF35F8F276088F3108824
:102CC000E0BCBA46B146A846F0BD5346144D5F6A13
:102CD00083005D59AF420ED3124A8E439B58624621
:102CE0001670BFF35F8F0022226088F31088002BDC
:102CF000E6D09847E4E70C4B92009C466244136888
:102D00001360BFF35F8F0023236088F31088D7E739
:102D1000280100D0004005403C700540FB4A0220DD
:102D200054470220D0110020D03F054010B50100CB
:102D3000024A0348FFF7D2F810BDC046C0ED0110AB
:102D4000ED4A0220034B596A0A00986A596A8A427E
:102D5000FAD1704700400540064A536A9942FCD8B0
:102D600007D1044B02E05A6A914202D19A6A824228
:102D7000F9D370470040054070B504000D00EFF333
:102D8000108672B61A4A1368002BFCD0BFF35F8F0F
:102D9000002D1BD02000FFF759F9164981420AD0B7
:102DA0002000FFF75BF901212000FFF73DF9012327
:102DB000A340114A1360114BA400E550BFF35F8F8D
:102DC00000220B4B1A6086F3108870BD0B4BA200DB
:102DD000D5500122A2400A4920000B7893430B7082
:102DE0000449FFF759FA00212000FFF71DF9E5E734
:102DF000280100D0712C001038600540D01100204F
:102E0000FB4A0220F0B54F46D6464646C0B50700FD
:102E10002F4C616A0D00A66A616AA942FAD18B4201
:102E200008D805D00120E0BCBA46B146A846F0BD9E
:102E3000B242F7D9EFF3108A72B62648016800292A
:102E4000FCD0BFF35F8F0125BD402349204C88464D
:102E5000097889462943C9B28C46414660460870C4
:102E6000391D1E48890065630A51B9000B50216A5B
:102E70000020294219D0616A0800A66A616A81426D
:102E8000FAD18B4219D801D1B24216D8CC451DD007
:102E90000F4B1F201D625D6301230740BB40104A9A
:102EA0001E38136043464A461A70BFF35F8F0022F4
:102EB000084B1A608AF31088B5E70020BFF35F8FD4
:102EC0000022044B1A608AF31088ACE70120ECE77B
:102ED00000400540280100D0FB4A02205447022050
:102EE00080E200E0EFF3108C72B60A490B68002B09
:102EF000FCD0BFF35F8F01238340074A074813626A
:102F000002789A430270BFF35F8F00230B608CF34B
:102F100010887047280100D000400540FB4A02207D
:102F200070B5050014001600002915D00C00002A09
:102F300012D080686B689847296800280ED073000B
:102F40009B196200033B1219CB18033A9C70881836
:102F50008A5C002A15D10670200070BD63001B1921
:102F60007200033B9219CB18033A9E7088188A5C52
:102F7000002A02D104703400EEE75A700470340065
:102F8000EAE75A700670E7E730B583600023CCB2F9
:102F900043730133047342608373C4730D0000688C
:102FA000012C06D9421C0133DBB2137003329C4260
:102FB000F9D1FF2129404B0059180023401803384C
:102FC000437030BDF8B5CE46474606000C0080B5CC
:102FD000002907D04D0003686D18033D5A19577832
:102FE000002F04D12000C0BCB946B046F8BD79001E
:102FF000C9190339884643445978894600215970D4
:10300000517073683A00210080689847336800283F
:1030100014D042469A18947059195B5D002B00D069
:1030200053700F70270049463000FFF7CBFF39007F
:1030300002003000FFF774FF0400D3E74246414628
:103040005D19AF709A185B5C002B00D06B70147028
:10305000E9E7C046F0B557464546DE464E46E0B580
:103060000D006B0001685B19DF1E0400C85D83B0B2
:103070000192CA19002850D043001B18033BCB18FB
:103080005E78B446002E1AD1019E002E42D0E67B17
:10309000002E04D073009B19CB18033B5D70A37BFB
:1030A000002B00D1A573E57300282FD100235370A6
:1030B00003B0F0BCBB46B246A946A046F0BD7200C4
:1030C0006244033A89184A78904600224A70914631
:1030D0005A70010032002000FFF722FF434682466B
:1030E000002B07D05B0021684344033BCB185A7880
:1030F000002A16D1424651462000FFF711FF2168F1
:10310000019BCA19002BC2D10028CFD043001B1845
:10311000033BCB1800219970C8E7019B002BB6D167
:10312000C4E7500080180338091848788346484699
:103130004870587041462000FFF7F2FE594680461D
:103140002000FFF73FFF414602002000FFF7E8FEA6
:103150008046CFE7F0B557464546DE464E46E0B5D9
:1031600083B00191457B04006B0000685B19DF1E92
:10317000C15DC219002952D04B005B18033BC31834
:103180005E78B446002E1CD1019E002E44D0E67B12
:10319000002E04D073009B19C318033B5D70A37B02
:1031A000002B00D1A573E573002931D1002328003D
:1031B0005370617303B0F0BCBB46B246A946A0464B
:1031C000F0BD72006244033A8018427890460022B3
:1031D000427091465A7020003200FFF7A1FE43462C
:1031E0008246002B07D05B0021684344033BCB1889
:1031F0005A78002A17D1424651462000FFF790FE28
:10320000019B01002068C219002BC0D10029CDD03C
:103210004B005B18033BC31800209870C6E7019B66
:10322000002BB4D1C2E75000801803380918487841
:10323000834648464870587041462000FFF770FEAC
:10324000594680462000FFF7BDFE4146020020009F
:10325000FFF766FE8046CEE770B5040000292CD04B
:10326000437B8B422ED0056848004018033828184D
:103270008278002A21D053009B18033BEA5CEE18A9
:103280008A4202D11BE0002A08D053009B18033B5E
:10329000EB185A788A42F6D142785A7000230122FC
:1032A000837043702000FFF7D5FE617B0200200091
:1032B000FFF736FE6073012000E0002070BD437808
:1032C0003370EBE701221900FFF7C4FE60730120A1
:1032D000F4E7C046F8B5040006200D0000F0C8F978
:1032E000002844D02A4B2B49E21853425A418023EC
:1032F000DB039C469205284B62441A60274B1A60F8
:1033000010008B689843FBD1214B8021E3185A426F
:103310005341234A5B0049009952062000F0A8F966
:103320002900C00001F036FEC30921D14027012148
:10333000260080256162A36200232C36AD0135434F
:103340002B60062000F094F93900800001F022FE85
:103350006023E26A53406E221A4080235B013343AC
:103360001A60104B236310232B600D3BA364F8BD40
:103370000D4A934203D900230C4F0D49D8E77F2211
:103380001040013040089F0119003F180300CFE7AB
:103390000080FCBF00C0004000E0004000F00040A2
:1033A000C84A022001030000FEFF0000C0FF3F00EA
:1033B000FFFF000030B50C2083B000F0B7F9FEF736
:1033C0006FFD00280ED0944B944A1A605A609A60A0
:1033D000DA601A615A619A61DA611A62904A5A6235
:1033E00003B030BD8F4CA06700F0A8F901228E4BCE
:1033F0001A60636C012BFCD103228C4B1A60894A42
:10340000936B012BFCD101330121894A8948009338
:10341000043300F033F90523874A009301218748DC
:1034200000F02CF9864B5A68FF2A02D880225200FD
:103430005A608022784C7D4B21691201804D1A60C0
:10344000002905D0606901F0A5FD01300138FDD1EA
:10345000E0217B4B02201A681140802252012A434E
:1034600011601968484003210140116004219A68E5
:103470001142FCD08022802192012A43090111606F
:10348000802252005A606F4B23616F4B5968FF29AD
:1034900000D85A600321644A6B4B116002399A6864
:1034A0001142FCD0E0201A681040802252011A43D9
:1034B00010601868484003210140022011606249F1
:1034C0008A681042FCD080229201134380221201AC
:1034D0001A6080225D4B52004A6063615C4B596800
:1034E000FF2900D85A6080225A4BE1691201584DD9
:1034F0001A60002905D0606901F04CFD01300138E7
:10350000FDD1E02252490B681A4080235B012B4316
:103510001A60802380229B012B4312011A608022B3
:103520003E4B52004A60E3614B4B5968FF2900D87B
:103530005A608022494B216A1201474D1A600029C6
:1035400005D0606901F026FD01300138FDD1E0228F
:1035500041490B681A4080235B012B431A6080238A
:1035600080229B012B4312011A60802380225B0082
:103570004B602A4BD2022362394B5968914200D2E8
:103580005A608022374B616A1201354D1A6000295A
:1035900005D0606901F0FEFC01300138FDD1E02268
:1035A0002F490B681A4080235B012B431A6080234C
:1035B00080229B012B4312011A608023DB024B60A7
:1035C000174B6362284B5A68FF2A02D880225200A8
:1035D0005A608022254BA1691201234D1A600029EF
:1035E00005D0606901F0D6FC01300138FDD1E02240
:1035F0001D490B681A4080235B012B431A6080230E
:1036000080229B012B4312011A6080235B004B60D8
:103610000E4BA361E4E6C046E8130020006CDC0218
:103620001BB70000008000403CB0004030B00040BC
:10363000002F685900800240008C864700C002407D
:1036400030800040001BB7003C80004040597307A9
:103650005480004054B000406080004060B00040A2
:103660006C8000406CB000404880004048B0004092
:10367000014B8000C0587047E8130020F0B5C646E3
:10368000040000B50C2090461F000E0001F082FCE3
:103690004101091A8D01691AC900091889014046BA
:1036A00001F078FC069B3F041A0323681743002BA4
:1036B00022DB1A4B1A4DE21853425A4180235B0118
:1036C0009C461203174B62441A60174B1A60110094
:1036D000AB689943FBD1C022231D92011A432123D9
:1036E0002660A06013602368002BFCDA0823E760E3
:1036F000136080BCB846F0BD3F2322681340B3423C
:10370000D7D1A3681B051B0D8342D2D1EE22E368FB
:10371000D2021340BB42CCD1EBE7C0460040FDBF14
:1037200000C0004000E0004000F000408023024A5A
:103730009B000343D362704700800540AA23064ADA
:103740001B0113602F230549D360054B1960536893
:10375000002BFCDA7047C0460040024000B0FA007F
:10376000006002402C4B2D4A70B51A602C4A2D4B3C
:103770002D491A6014008B689C43FBD12B4D2C4EB5
:10378000B54208D2013E761BB60808CD9847230003
:103790000134B342F9D1FFF70DFE264A214B1A60DE
:1037A000214A9368DB43DB01DD09002BF9D140227C
:1037B000214B224C224E9A675A671A67DA66B44246
:1037C00008D223682000002B20D00834FEF7CEFE5C
:1037D000B442F6D31B4E1C4CC022A168300002F04C
:1037E00015F8A660FEF706FCFEF788FEFFF75AF80C
:1037F000164C174EB44208D2013E361BB60808CC10
:1038000098472B0001359E42F9D170BD0834FEF770
:103810009FFEB442D5D3DDE700E00040BFCDFBFE04
:10382000FE7F3C0000F0004000C00040080F002078
:10383000180F0020FFFFFF0100F00140000F0020E3
:10384000080F00200000002000ED00E0180F00200D
:10385000200F002000BEFDE7094A03001068002881
:1038600005D00849C3188B4207D813607047064833
:103870000449C31810608B42F7D901204042F5E794
:10388000C422002000000420FC4A022010B5FFF7EB
:10389000E1FFC0460FB400B5084883B002F01AF942
:1038A000049B002B07D005A91800019101F0F2FA42
:1038B000034802F00FF90120FFF7CCFFE4ED0110FF
:1038C0001C82051010B50148FFF7E4FFF4ED01106C
:1038D0009A4200D2885470477047C046F8B55746A0
:1038E0004E464546DE46E0B599460A9B07009A4695
:1038F0000D9B8846934615000B9E9B0710D10C9B91
:103900009E420DD29D1B14000E005D4422004B46CA
:10391000013431002020B847A542F7D1B0460B9EB4
:10392000002E27D0444675195346AA1B013E985DC8
:1039300021004B46B847002EF6D123002C009846B4
:103940000D9B9B070FD55B46E51A0C9BAB420AD932
:103950004646984622004B46310020200135B847A4
:103960000134A845F6D82000F0BCBB46B246A946B3
:10397000A046F8BD2C00E3E7F0B54F464646D646D4
:10398000C0B584B098460EAB1B78129F99469446FA
:103990000D9C109B119EBA0725D4002E4BD19C4242
:1039A00000D3BFE001223A4092461F2C00D9B8E074
:1039B0000C9A551E302201E0202C03D001342A55E8
:1039C000A342F9D85246002A0DD0A6420BD9202C8A
:1039D00044D00C9A551E302201E0202C3ED00134F8
:1039E0002A55B442F9D1FA064DD57A053FD4002CB8
:1039F00039D10F9B102B00D179E00F9B022B00D106
:103A00008AE030230C9A012413704B46002B3FD0E0
:103A10002D230C9A135501340C9B62460093039797
:103A2000434602960194FFF759FF04B0E0BCBA4642
:103A3000B146A846F0BD012215003D40AA463A42D3
:103A40002FD04A46002A02D10C323A4200D0013E21
:103A50009C42BAD21F2CABD9202E27D92024FA069B
:103A6000DAD57A0503D4A3422DD0A6422BD00F9BE2
:103A7000102B32D0022B20D0202CCDD030220C9B0A
:103A80001B191A700134202CC6D04B46002BBFD115
:103A90007B070DD43B07BFD520230C9A1355013467
:103AA000BAE79C429FD21F2C00D881E720249AE7D6
:103AB0002B230C9A13550134AEE7202CACD00C9B71
:103AC0001B1901343AE0631E012C92D00F9A102A80
:103AD0002AD0022A2FD01C00D0E7BB060ED4202CFF
:103AE0009AD00C9B1A19013478231370C4E7BB06D3
:103AF0000DD478230C9A01241370BFE7202C00D139
:103B00008AE758220C9B1B191A700134B4E758231A
:103B10000C9A01241370B1E70C9A603301241370DE
:103B2000ACE7202400265EE7023CBA06E9D40C9AF2
:103B300012191C00D8E70C9A9246534462221A705C
:103B40009AE7C04610B5002800D110BD01F076FFFD
:103B5000FBE7C0460B0010B5002802D049681B687F
:103B6000984710BDF0B5DE4657464E464546E0B58F
:103B70009BB09B46249B89469846259B0B900C92B4
:103B80004046424619009A4601F0BDFC002800D08C
:103B9000D8E0012240465146774B524201F0AEFC3C
:103BA000002800D0CEE0012240465146734B5242DD
:103BB00001F08EFC002800D0C4E000220023404623
:103BC000514601F085FC002800D0B9E14246534639
:103BD0000A9209938023289ADB001A400E92289AB1
:103BE0001A4201D1062326930A9A099B1600134311
:103BF00000D0C7E0289B002500261B0500D49BE1D0
:103C000000230D93269A0D9B9A4200DC9FE1D01A67
:103C1000431E26938023289ADB001A4300230027A3
:103C200028920D93279B0024BB4200D9DC1B022362
:103C3000289A1A400E92289A134203D07B427B4165
:103C40005B421C400D9B002B07D00A9809992A0063
:103C5000330001F0E4FB0A90099100220023404662
:103C6000514601F035FC002805D08020000684462E
:103C7000099961440991289A414B0B9D1340049383
:103C8000269B0A9A0293099B03940092019349464A
:103C90005B4628000C9A00F08BF90400002F62D0DC
:103CA000289B220098061F23C0179843631C984640
:103CB00049465B466530A8470D9B0025DA179C18DE
:103CC000DB0F9A465440013F01E0202D13D00AAA91
:103CD00094461F23200063440A2101355E1901F038
:103CE00059F93031317020000A2101F053F92600D2
:103CF0000400092EE9D805230693002304930A3310
:103D00000393534605970B9F029312AB00934246D1
:103D10005B46494638000195FFF72EFE0E9B0400D6
:103D2000002B20D00C9BC51A279BAB421BD91E0031
:103D300022005B46494620200135B8470134AE4297
:103D4000F6D810E0289B42460493279B49460393EC
:103D5000269B0B9802935346009201935B460C9A64
:103D600000F026F9040020001BB0F0BCBB46B246B0
:103D7000A946A046F0BDC046FFFFEF7FFFFFEFFF63
:103D8000FFF7FFFF734B099F9C467800400D60448E
:103D900001F0CCFB704A714B01F05BFB704A714B38
:103DA00001F038FB3B03704A1B0B1A4304000D0063
:103DB000300011006D4B002201F027FB6C4A6D4B67
:103DC00001F047FB02000B002000290001F022FB5C
:103DD00001F0C4FB0D9001F0A9FB674A674B04009A
:103DE0000D0001F036FB0022654B01F013FB01F0E2
:103DF000B5FB644A0600644B2000290001F029FB52
:103E0000040030000D000F9601F090FB5F4A604BFC
:103E100001F01FFB02000B002000290001F0F5FA61
:103E200002000B0006000F0001F013FB320004003B
:103E30000D003B003000390001F0ECFA0022109038
:103E40001191544B2000290001F0E9FA0022524B55
:103E500001F0E0FA02000B002000290001F0DFFA77
:103E600000224E4B01F0D6FA02000B002000290080
:103E700001F0D5FA0D008021040032003B00002043
:103E8000C90501F0C2FA02000B002000290001F070
:103E9000C1FA02000B001098119901F0C0FA00223B
:103EA000314B01F0B7FA3E4B0F9C9C466444002214
:103EB000230501F0CEFA05000E0002000B000A985F
:103EC000099901F005FB00280AD00D9B2800013B51
:103ED00031000D930022304B01F0A1FA05000E00D5
:103EE000C6270D992B0063318F42BF4128997F422D
:103EF0000437090500D495E6334300D182E6099CD6
:103F0000284A2100284B0A9801F0F0FA002808D02E
:103F100000222100254B0A9801F0DAFA002800D08F
:103F200070E6269B002B00D17CE60E9B5A1E934127
:103F3000269AD31A269375E6002304270D9371E67B
:103F400043460A9380231B065344099342E6002309
:103F500026935FE601FCFFFFFB799F501344D33F9C
:103F6000B3C8608B288AC63F0000F03F0000F83FCE
:103F700061436F63A787D23F71A379094F930A40CA
:103F80000000E03F1655B5BBB16B0240EF39FAFEB9
:103F9000422EE63F00002C40000024400000184064
:103FA000FF0300002D431CEBE2361A3F80842E41B4
:103FB000F0B54E46DE4657464546E0B597B09946C1
:103FC000209E219F229B8346984607910C923B009E
:103FD00032003000390001F096FA002800D0A9E143
:103FE000012230003900CA4B524201F071FA002818
:103FF00000D0E1E0012230003900C64B524201F00E
:104000007DFA002800D0B7E0002230003900C24B12
:1040100001F074FA002800D099E000223000390045
:10402000BE4B01F055FA002800D090E0002200239A
:104030003000390001F04CFA002800D0B1E0002334
:104040000D93249B5B0501D40623984608AB9C4640
:104050001722002430234146624404E00134135502
:104060000139202C01D00929F8D8884630003900C0
:1040700001F074FA4346DA00A94B05009B181A6850
:104080005B680892099301F051FA02000B003000BE
:10409000390001F0BAF9089A099B01F0DAF90A909F
:1040A0000B9101F07FFA824601F03CFA02000B000E
:1040B0000A980B9901F0A9F900229A4B0A900B91EA
:1040C00001F01CFA002800D1C0E001239C46E24424
:1040D000504601F027FA02000B000898099901F0F8
:1040E000FDF9002802D000239A4601354346002BF3
:1040F0006AD008AB17269C4608956644554614E0DE
:1041000001235B4243440A2128009A4600F042FF03
:10411000013430313719397028000A2100F03AFF94
:10412000092D00D8D0E0D0460500202CE8D10EABF8
:1041300098460323249A1340012B00D196E02023B4
:10414000249A01930392239A434602921EE0249BF1
:1041500058460493239B00960197039343460C9A79
:10416000029307994B46FFF7FDFC17B0F0BCBB4626
:10417000B246A946A046F0BD249B5B070ED403229D
:10418000694B249901920391239902910093584617
:104190004B460C9A0799FFF7A1FBE6E70422634B15
:1041A000EFE73B0032000020002101F02EF901234F
:1041B00006000F000D9344E7249B0393239B029377
:1041C000042301935A4BE1E7280001F0AFF9020004
:1041D0000B003000390001F018F9524B00220600A4
:1041E0000F0001F075F90EAB984600280AD10022A5
:1041F000300039004B4B01F081F9002802D1EB0768
:1042000000D50135202C94D008AA94461723280005
:1042100063440A2101341E1900F094FE3031280055
:1042200031700A2100F08EFE051EEBD10323249A83
:104230001340012B1BD0202C00D180E70D9B002BBD
:1042400035D02D224146631C0A5579E700220A9891
:104250000B99344B01F03CF9002800D046E7534657
:10426000002B51D101239C46E2443FE72024239BAD
:10427000002BE0D00D9B002B03D1249A0C3313426A
:1042800002D0239B013B2393239BA342D3D908ABAA
:104290009C46172230236244202C00D14FE72399FB
:1042A000013413558C42C6D0202CF8D147E7249B0B
:1042B0005B0724D4249A2300120700D440E720226D
:1042C000414601330A553BE75746089D202C00D153
:1042D0002DE7220030214046002F09D00132B15491
:1042E000202A00D123E7D3431B191B18002BF5D13B
:1042F0000EAB98462E234146541C8B5482E72B224A
:104300004146631C0A551BE7DB0700D4EEE6A9E72C
:10431000FFFFEFFFFFFFEF7F65CDCD4165CDCDC145
:10432000F8EF01100000E03F00EE011004EE011074
:1043300010EE0110249B0393239B0293032301930C
:10434000004B23E70CEE0110F0B5DE464E46574613
:104350004546E0B59FB01C00289B91460993C94A89
:10436000C94B8B4608901A60002900D118E200233F
:1043700020789A46002800D11AE226001D005C46EB
:104380000AE02A006F1C4B46089D2100A8473D000B
:1043900001363078002870D02528F2D110239B46B2
:1043A000083B9A46043B9846023B00219C46721CFF
:1043B000107816000300203BDBB2102B03D8B34F5C
:1043C0009B00FB589F460300303B092B32D900234A
:1043D0000A932A2868D0002398462E283ED003004E
:1043E000683BDBB2122B1CD8A94A9B00D3589F46CE
:1043F000012301321943DBE7634601321943D7E752
:10440000434601321943D3E75B4601321943CFE7F4
:10441000534601321943CBE780235B007078194380
:1044200001360300253BDBB2532BAAD8994A9B00E7
:10443000D3589F4600270300B800C019013640003A
:10444000C018337830381A00303A0700092AF3D9F7
:104450000A901800002398462E28C0D18023707837
:10446000DB0019430300303B721C092B00D8A1E18B
:104470002A2800D1B2E11600B1E7A346AA462C00D3
:10448000D14503D801235B424B449A464B465246E2
:1044900059460020089DA84720001FB0F0BCBB462D
:1044A000B246A946A046F0BD099B40CB0A96002E15
:1044B00003DB50780993561C8DE72838014370427E
:1044C0000A9009935078561C85E7782800D1DFE1DF
:1044D000582800D14CE26F2800D14FE3622801D167
:1044E00000F030FC10230A009A430B92692801D097
:1044F00000F0A9FC0A230C934B0500D5D0E10B9AE0
:10450000802311009B0019408B461A4200D0A1E283
:10451000802311005B0019408A461A4200D0B6E39E
:1045200013005B0600D5EDE2130009991B0601D4C8
:1045300000F076FC08C91BB2D8171A18424092B294
:1045400009919346DA0F1292002B09D18023102291
:104550000B99DB000B4091430B91002B00D0E4E260
:104560000B9A6123920600D541230EA91F228C4687
:10457000DBB262440A3B5F461395A34655460C9C4A
:10458000B2460D9316000AE03033DBB201357355A5
:10459000A74200D2EDE2202D00D1EAE2070021007F
:1045A000380000F0F7FCCBB20929EDD90D9A9446FA
:1045B0006344DBB2EAE780239B007078194301363D
:1045C0002FE77078682800D1CDE1802301361943A8
:1045D00027E770786C2800D1BFE180235B00194386
:1045E00001361EE7462800D19BE10722099B049172
:1045F000073393430A9A19000392424602920CC968
:1046000008980092019309912A004B462100FFF778
:10461000CFFC01360500BCE62A006F1C4B46089D06
:1046200021002520A84701363D00B2E68B0700D4C3
:10463000ADE1099B2A009A466B1C9846534601CB74
:1046400021009A46089F4B46C0B2B8470A9B9C4639
:104650006544012B00D886E2089B4746B0462600F9
:104660004C4699463A002300013731002020C847C4
:10467000AF42F7D1A146534634004646099301366E
:1046800087E6C04649430010F022022018EE0110D0
:104690005CEE0110A8EE0110099B04CB9B4643463B
:1046A0000992002B00D1C6E013789C46002B00D164
:1046B000BDE34346013B099A0133D0180A9F13001A
:1046C00001E0834203D05A780133002AF9D1099AD4
:1046D0000A979B1A0B9380230A00DB001A400C9266
:1046E000194204D00B9B434501D943460B93022347
:1046F0001A000A400D920B4200D187E16046002863
:1047000000D168E10C9B002B00D10DE1A844C2460A
:10471000099B57465B1B9846089BB2462A00260019
:104720004C46994609E023003100551CC8474346D2
:10473000585D002800D126E12A009742F3D1A14616
:104740003D00340056460D9B002B00D043E15B46F4
:10475000013609931DE6099B1A0008CA9246002BF0
:1047600048D0212211438B460EA884461F21614464
:10477000099500220F27A4460D0002E0202A0CD044
:104780000B003C001C4020003730092C00D80738B3
:104790000132A85419090F2BF0D86446099D32E064
:1047A000DC4B2078089300239A46002800D0E4E5EB
:1047B000002465E6434606000A9F9800C0180132AF
:1047C000400080191678030030003038303B09284B
:1047D000F3D93000984616000A9700E6099B023686
:1047E00004CB9046D2434046D217104080460993EE
:1047F0003078F4E5102208009043113210438346CC
:1048000000224905B0D55B4606930823059343462D
:104810000493102303930023029316AB0192009399
:104820002A004B4621000898FFF7A6F853460500DA
:1048300001360993ADE513789C46002B00D1F7E2D1
:1048400002235B4237E7202302009A43472A04D120
:1048500080231B01194302239843452801D12023BB
:1048600019430722099B0491073393430A9A1900BD
:104870000392424602920CC9089800920193099152
:104880002A004B462100FFF76DF90136050080E54F
:1048900010230C930C230A009A430B924B0503D56B
:1048A00001230B9A9A430B92692800D127E66428CA
:1048B00000D124E60B9A802311009B0019408B46FF
:1048C0001A4200D066E1802311005B0019408A463D
:1048D0001A4200D039E213005B0600D53CE1130018
:1048E0001B0600D4A6E2099B04CB1204120C9346CB
:1048F00009935B46002B00D09AE10B9A103311000C
:1049000099430B91520500D492E100239A460B9BE8
:1049100006930A9B0593434604930C9B0393002341
:104920000CE12023194360E6099B0A9A5B1B984619
:104930004B4691461F00B2462600089C2A003B00C9
:104940003100A04743460135585D0028F6D14A465C
:104950003400B94656460A92F5E6C0239B00B0786B
:10496000194302365DE5C023B0781943023658E595
:104970000C230A009A4314331A43103B0B920C93F6
:104980004B058DD496E7A14634005646DBE60A9ADD
:10499000012A00D853E26B1E9F18089BB0462600E0
:1049A0004C4699462A002300013531002020C84793
:1049B000BD42F7D1A14634004646099B3A0001CBDF
:1049C000210098467D1C4B46089FC0B2B84743461D
:1049D00001360993DDE40B9B0A9AA8469A4200D857
:1049E000B5E694466544ED1A089B4746B046260056
:1049F0004C4699463A002300013731002020C84731
:104A0000AF42F7D1A14634004646A0E60B9A0A9978
:104A1000531C914200D814E24B199B1A1F00089BAB
:104A2000B24626004C4699462A0023000135310043
:104A30002020C847BD42F7D10A9BA14601330B9302
:104A4000099B34001B7856469C466046002800D0DF
:104A500058E67CE60722099B0733934301329446CC
:104A60009C4462465F6809921A68FB171093119381
:104A700010981199030053400E930B007B400F9345
:104A800094460E9A0F9B121A8B410E920F93FB0FB6
:104A90006246129300233A439B463DD00B9A612312
:104AA000920600D541230022DBB20EA90A3B8C46B8
:104AB00092460D9343461F32624413951596554610
:104AC0000E9E0F9FA24690460C9C14930CE0303231
:104AD000D2B2434601355A55BB4500D18AE1202D5B
:104AE00000D18AE106000F002200002330003900C7
:104AF00000F08EFAD2B2092AE9D90D9B9C46624495
:104B0000D2B2E6E7FF23099904C913401A000991BC
:104B100017E5C046D93800100B9A1033110099439D
:104B20000B915205BAD500239A460B9B06930A9B1C
:104B30000593434604930C9B0393129B02935346A5
:104B4000019316AB2A00009321004B460898FEF70C
:104B500013FF013605001CE4FF22099B02CB114024
:104B60008B460993C5E65346454609930136FFF740
:104B700010FC56465C46AA46139DD6E708230C93C4
:104B80000B910B99642800D084E60B9B5B0500D544
:104B900086E6B4E40722099B073393430132944627
:104BA0009C44624609921A685B6810009B46130099
:104BB0005A46134307D10B9A1033110099430B91B6
:104BC000520500D5A1E60B9A6123920600D5412338
:104BD0000022DBB20EA90A3B8C4692460D93434657
:104BE0001F3262445F461295A34655460400B24602
:104BF00090460C9E13930DE03032D2B243460135FD
:104C00005A550023BB4200D100E1202D00D100E124
:104C100004000F00320000232000390000F0F8F9F2
:104C2000D2B2092AE8D90D9B9C466244D2B2E5E78C
:104C30000B9A6123920600D54123DBB20EA90A3BF1
:104C40001F228C460D93230062445C461295170088
:104C500055469B46B2460C9E08E03033DBB2013528
:104C60007B55B4420ED3202D0CD00400310020001F
:104C700000F090F9CBB20929EFD90D9A944663441C
:104C8000DBB2ECE756465C46AA46129D3FE6099B1E
:104C90001A0008CAD91713925A184A409246DA0FD6
:104CA0001292002B08D1802310220B99DB000B40BD
:104CB00091430B91002B2BD10B9A6123920600D5C7
:104CC00041230EAA1F279446DBB20A3B0D95674489
:104CD0005D460993A3465446B2460C9E08E0303325
:104CE000DBB201357B55B4420ED3202D0CD004002D
:104CF0003100200000F04EF9CBB20929EFD9099A12
:104D000094466344DBB2ECE756465C46AB460D9DE9
:104D10000B9B2A0006930A9B2100059343460493AC
:104D20000C9B08980393129B013602935B460193F8
:104D300016AB00934B46FEF71FFE139B050009932D
:104D4000FFF727FB02230C931AE7099B04CB92463B
:104D50001293002A08D1802310220B99DB000B400C
:104D600091430B91002B2BD10B9A6123920600D516
:104D700041230EAA1F279446DBB20A3B0D956744D8
:104D80005D460993A3465446B2460C9E08E0303374
:104D9000DBB201357B55B4420ED3202D0CD004007C
:104DA0003100200000F0F6F8CBB20929EFD9099ABA
:104DB00094466344DBB2ECE756465C46AB460D9D39
:104DC0000B9B2A0006930A9B2100059343460493FC
:104DD0000C9B08980393002302935B46019316AB48
:104DE00000934B46FEF7C8FD129B05000993013660
:104DF000FFF7CFFAB44200D871E6149B54460E96E2
:104E00000F97AA469846159E139D8EE6A64200D897
:104E1000FBE6139B56469846AA465C46129D76E5ED
:104E200008C9D8171A1842400991FFF78AFB0023D6
:104E30000B9350E4099B04CB9346099359E52F004B
:104E4000BBE50B9301E6063B0C939AE60EB40122F8
:104E500010B585B007AC08CC01000094524204485C
:104E60000394FFF771FA05B010BC08BC03B01847F3
:104E7000D138001000B585B0039101210290009354
:104E8000034813004A4202A9FFF75EFA05B000BDCD
:104E9000553B001010B5094A0300146884B0002C7B
:104EA00008D0012200910648524203A9A0470120E0
:104EB00004B010BD00F00EFE0020F9E7F022022041
:104EC000453B001001480421014B184730060020E3
:104ED000014F0010014B9B6818470000300600206E
:104EE000142310B50100188804331B88984710BD9F
:104EF000162310B50100188802331B88984710BD8F
:104F0000F8B54746CE4680B50F1E19D014239946F2
:104F1000043304000025012698464B461888434672
:104F200021681B88984701C4431E984101354042BF
:104F30000640AF42F1D13000C0BCB946B046F8BD22
:104F40000126F8E7124A936F9B0815D29066D16646
:104F5000002905D0FFE7FFE7FFE7516F106F7047AB
:104F600004B580210906C2175140002800D0C8436B
:104F700012F0F6FA002104BDF0B5146E556E576FAD
:104F8000166FFFF7E3FF1466556657671667F0BDA7
:104F9000000000D0114A936F9B0813D2106651662F
:104FA000002905D0FFE7FFE7FFE7516F106F70475B
:104FB00004B5002801D00020C04312F0D1FA00212E
:104FC00004BDC046F0B5146E556E576F166FFFF7EF
:104FD000E5FF1466556657671667F0BD000000D000
:104FE00094464A4A926F9208624601D228E0C0462F
:104FF000F0B5464E346E756E776F366F00F020F860
:105000009446424A14665566576716676246F0BD75
:1050100094463E4A926F9208624601D254E0C046DE
:10502000F0B53A4E346E756E776F366F00F04CF80F
:105030009446364A14665566576716676246F0BD51
:10504000002B24DB11D000293EDA00B5C9434042D1
:1050500000D1013100F038F8C943404200D101319C
:10506000DB43524200D1013300BD002AEBD10028BE
:1050700001D1002905D00020C90FC90701D1C043C3
:10508000410800B512F054FA0022002300BD00B51B
:1050900000290ADBDB43524200D1013300F014F84F
:1050A000C943404200D1013100BDC943404200D153
:1050B0000131DB43524200D1013300F005F8DB43FC
:1050C000524200D1013300BD002923D1002B18D159
:1050D000002A0CD0BC460D4F38667A6600210023AA
:1050E000FFE7FFE7FFE77A6F386F674670470028F2
:1050F00001D00748010000B512F01AFA002200237F
:1051000000BD02000B00002000217047000000D00D
:10511000FFFFFFFF002B00D0BFE0130C28D1002AB7
:10512000E7D080B4114F39667A66FFE7FFE730B405
:10513000040C7B6F396F1B0423433B667A66FFE7E1
:10514000FFE7FFE7C04684B27B6F3D6F1B0423433C
:105150003B667A66FFE7FFE7C04600232C042D0C70
:105160007A6F386F00196941B0BC7047000000D0F9
:10517000F0B594460025140E01D112020835140F23
:1051800001D112010435940F01D192000235D40FE0
:1051900001D152000135D40B0134254F7C66254CDA
:1051A0003C660E0C93B2FFE7FFE7FFE73C6F6643F8
:1051B000360C7703BE467343DF0B5B04C01AB9415C
:1051C000130C7343DB18C91ACE086643360CB64479
:1051D00093B273431F0F1B01C01AB941130C7343E1
:1051E0001F0B1B05C01AB941860D8F023E43664353
:1051F000360C092D24DB520A7243801A7703460AC3
:105200006643360C16235B1BDE40DF40BF19644645
:105210006643821B7046043506330100D940A8401E
:10522000C01900D30131A24206D20023F0BD000014
:10523000000000D0FFFFFFFF121B0130F3D3F1E7A6
:1052400009277F1BFE406446A2B27243801A00D237
:105250000139220C7243130C1204821A99410B007B
:105260007046043513370100F940A840801900D377
:105270000131002B02D1A2420AD2F0BD013000D38D
:105280000131121BFAD2013BF8D1A24200D2F0BD8B
:10529000013000D30131121BF7E7F0B51C0C00D030
:1052A00080E00CB400251C0A04D11B02160E334307
:1052B000120208351C0B04D11B01160F33431201D7
:1052C00004359C0B04D19B00960F334392000235AA
:1052D000DC0B02D192185B4101351C009718644128
:1052E0000134464F7C66464C3C660E0CFFE7FFE7F8
:1052F000FFE7C0463C6F6643360C7703BE4697B265
:105300007743C01B00D20139C01B00D201399FB2C4
:105310007743C91BC91B170C77437E04FF0B801B07
:10532000B941CE086643360C0C2D33DBB644120B64
:105330001F053A431B0B97B27743C01B00D20139BC
:105340009FB27743C91B170C77433E043F0C801B69
:10535000B941860D8F023E43664329277F1BFE40DD
:105360000C3D7746AF40BF1930BCA2B2ABB272431E
:105370007343801A9941220C7243130C1204801A51
:10538000994102000B000137001BA941F9D2781E98
:105390000021F0BD0C277F1BFE4077467F0BAF40FE
:1053A000FF19E0E700245D1C07D0144F7D663966C5
:1053B000FFE7FFE7FFE7FFE73C6F95B29EB265436B
:1053C0006643401BB141150C1E0C65436643360411
:1053D0002F0C3E432D04401BB141994204D20200E0
:1053E0000B0020000021F0BD01D19042F7D3801ABC
:1053F000994101349942F2D3F6E70000000000D051
:10540000FFFFFFFF48404140484018B4134B5B6822
:10541000019308BD18B4114B1B68019308BD944655
:105420000F4A926F920805D2624618B40B4BDB68A4
:10543000019308BD0A4AF0B5146E556E576F166F8A
:105440006246FFF7F2FF064A14665566576716670D
:10545000F0BD18B4014B9B68019308BD701000208B
:10546000000000D0FFB550404240504059404B40F2
:10547000594000E0FFB5154F4C00640D03D0BC420D
:1054800004D10C0314D80020090D09055C00640D3B
:1054900003D0BC4204D11C030AD800221B0D1B05FB
:1054A00001264B4009D44B4003D58B4200D18242A8
:1054B000FFBD9942FCD19042FFBD0B43DB18034373
:1054C0001343F5D0C9434918FFBD0000FF07000092
:1054D00000B5FFF7CFFF804100BDC04600B5FFF724
:1054E000C9FF01D9002000BD012000BD00B5FFF7B4
:1054F000B9FF01D9002000BD012000BD00B5FFF7B4
:10550000B1FF804100BD012040054A00121804D8B7
:105510005A00121801D8002070470120704700205F
:10552000704700000021002805D17047C11748408E
:10553000401AFAD0C90713B5064B1B6898470CBC34
:10554000441CA2401005120B0349091B090519430D
:10555000114310BD4C4602201F04000010B54C0042
:10556000620D8023D218DB00D21A5B057E2A10DD83
:105570009E3A13DACC170903490819435242D14025
:10558000640001341532202A05DAD0400843604314
:1055900010BD002010BD0846604310BDC80FC018E4
:1055A000013810BD18B4024B5B6A019308BD0000BE
:1055B0007010002010B50148FEF76CF948F001109A
:1055C000132370B51D78012D11D035DD1C48FFF770
:1055D0008FFC1C4C01008022200000F017F9022DE6
:1055E00027D01948FFF77CFC184B186070BD184B8A
:1055F000144C23606360A360E36023616361A36173
:10560000E36123626362A362E36223636363A36370
:10561000E36323646364A364E36423656365A36550
:10562000E36523666366A366E36623676367A36730
:10563000E367084BA364D4E7024C064BA364D0E7AE
:1056400053440000701000204C3300004C460220F0
:10565000B55500105956001007B5604601880A0A72
:105660000230DF2AFAD1C9B2820804D30288408806
:105670000004104300E00068014A5050039007BD49
:105680007010002051434343C9188C46110C83B25B
:105690004B4310B4040C614392B280B25043624356
:1056A0001C041B0C001910BC59411304120CC01827
:1056B00051416144704700004840414048400E4B12
:1056C0005B6818470C4B1B6818470C4A936F9B0884
:1056D00002D2094BDB681847F0B5146E556E576F50
:1056E000166FFFF7F6FF054A14665566576716678B
:1056F000F0BD014B9B68184750460220000000D0C7
:10570000491A002808D1084670470000C10FC90790
:1057100000D54042002817D0F44603B40B4B1B6859
:10572000984706BC81409E384042803107D20B0624
:1057300007D04900490AC0051043084360470130BB
:10574000F8E7490A8902F5E7704700004C46022055
:10575000014B5B6A184700005046022010B5014813
:10576000FEF798F8880C0210132310B510481C7827
:10577000FFF7BEFB0100012C0AD003DD80220D489B
:1057800000F044F80C48FFF7ABFB0C4B186010BD61
:10579000084C5422200000F039F82300084A8033D6
:1057A0002168002900D122600434A342F8D1E9E73E
:1057B00053460000504602204C3300004C46022065
:1057C0005D57001010B5040011F004FA002804D051
:1057D000034B04199C4200D810BD0248FEF75AF84A
:1057E0000000042060F0011010B511F0FDF910BDAB
:1057F00001480421014B184740060020014F0010CA
:10580000014B1B681847000040060020014B5B68F5
:105810001847000040060020030010B508001100E2
:105820001B68984710BDC046F0B546464F46D64661
:10583000C0B5437D80460E001700002B46D0002ADD
:105840003FDD4B1E9946244B0125002400209A463B
:105850000DE04B461B5D0D3B5A425341325DDBB2BE
:105860000A2A0BD02B00013401359F421ADD002C8F
:10587000EFD14346325D1B7D0A2AF3D1002BF1D1D3
:10588000A04204DA4346211A1B6830189847434661
:1058900050461B6802219847013428002B0001352F
:1058A0009F42E4DC874204DD4346391A1B68301806
:1058B0009847F619013E33780D3B5A425341424610
:1058C0001375E0BCBA46B146A846F0BD03681100A6
:1058D00030009847F5E7C0461CF10110F0B5C64608
:1058E0000C000968060000B5802906D04B1C236017
:1058F0006418267180BCB846F0BD0F4B1D68002DA2
:1059000016D0231D98460D4F02E02D69002D0FD0B3
:105910002B68002BF9D03B68002B01D0AB42F4D1AF
:10592000280041462268FFF77FFF2D69002DEFD147
:1059300001230021DBE7C046B8220020C02200205E
:10594000F0B5DE4657464E464546E0B585B01700F1
:105950001C0006000D00FDF7F5F90023304A12186F
:105960004B41002B58DB2F4908008A4611F008FEF6
:1059700001906B1C03D1300011F024FC0500002CB9
:1059800025D1294B9846294B1C68002C15D0002F97
:1059900020D1274F02E02469002C0ED02368002B71
:1059A000F9D03B68002B01D0A342F4D120002A009B
:1059B0003100C0472469002CF0D1019B002B27D176
:1059C00005B0F0BCBB46B246A946A046F0BD194B97
:1059D0009846D8E7164B994602ABDF1D0A239B4633
:1059E00002E02469002CE8D02368002BF9D04B4654
:1059F0001B68002B01D0A342F3D12A003100200004
:105A0000C0475B460122390020003B70C047E8E7F1
:105A1000504611F085FDD3E70122074B5242A2E721
:105A200040420F00000F002029580010B82200202B
:105A3000C022002019580010FFFFFF7FF0B5CE46AE
:105A4000474680B583B06B460600DD1D2870FDF724
:105A500079F900231A4A12184B41002B2BDB194904
:105A60000800884611F08CFD174B81461C68002CFD
:105A700014D0164F02E02469002C0FD02368002BAD
:105A8000F9D03B68002B01D0A342F4D120000122C1
:105A90002900FFF7C9FE2469002CEFD14B46002BEB
:105AA00005D1300003B0C0BCB946B046F0BD404699
:105AB00011F036FDF5E70122054B5242CFE7C04613
:105AC00040420F00000F0020B8220020C02200201A
:105AD000FFFFFF7F70B5040011F074FB002301008D
